:1000000002308A00302A0000FF00030E8301A100A5
:100010000A08A0008A010408A2007708A300780853
:10002000A4007908A5007A08A600831383128C30F7
:100030008400001C1D280C182E2822088400230888
:10004000F7002408F8002508F9002608FA0020081F
:100050008A00210E8300FF0E7F0E09008A110A120A
:1000600046284908F8014802031839284808F700CB
:100070004528F7010830CA00C80DF70D4908770276
:100080000318F700F80DCA0B3C280800A80A8316CD
:10009000850183122808850028080A3C031DC12811
:1000A000A801A90A29083C3C031D6228A901AA0A43
:1000B0002A083C3C031D6228AA01AB0A2B08183C05
:1000C0000319AB012908C8000A30C900312077089C
:1000D000AC002908C8000A30C90031207808C800DF
:1000E0000A30C90031207708AD002D0EF700F0303E
:1000F000F70577082C04C700831688018312470888
:1001000088002A08C8000A30C90031207708AE00EC
:100110002A08C8000A30C90031207808C8000A300F
:10012000C90031207708AF002F0EF700F030F70537
:1001300077082E04C7000030C000831687018312A1
:10014000470887002B08C8000A30C900312077080B
:10015000B0002B08C8000A30C90031207808C80058
:100160000A30C90031207708B100310EF700F030B5
:10017000F70577083004C700831686018312470805
:1001800086000C108A110A121D288316850183121D
:10019000280885002D0EF700F030F70577082C04AD
:1001A000C200831688018312420888002F0EF700D0
:1001B000F030F70577082E04C2000030C000831627
:1001C0008701831242088700310EF700F030F705EF
:1001D00077083004C2008316860183124208860025
:1001E0008A110A12572A4330840083130008031926
:1001F00006290630F800F701F70BFC28F80BFB285E
:100200007B30F700F70B0229800BF9280800C201A8
:10021000BF08031D2D2A831609148312BF01091874
:10022000BF0A831689148312BE018918BE0A831679
:1002300005168312BD01051ABD0A831685168312A1
:10024000BC01851ABC0A3E0B2929C20AFA30C30038
:10025000F320C208031D41293D0B3629B20AFA30AA
:10026000C300F3203208093C031CB2013C0B4129B6
:10027000B203FA30C300F320B208031D412909304C
:10028000B200420B58293D0B4D29B30AFA30C30086
:10029000F32033083B3C031CB3013C0B5829B30348
:1002A000FA30C300F320B308031D58293B30B300D4
:1002B0004208023C031D71293D0B6629B40AFA303D
:1002C000C300F32034083B3C031CB4013C0B7129F0
:1002D000B403FA30C300F320B408031D71293B3086
:1002E000B4004208033C031D8A293D0B7F29B50A4F
:1002F000FA30C300F3203508173C031CB5013C0B52
:100300008A29B503FA30C300F320B508031D8A29F2
:100310001730B5004208033C03189229C201FA3095
:10032000C300F32083168501831232088500A701DC
:100330008B1BA7178B133308C8000A30C900312064
:10034000A71B8B177708B600A7018B1BA7178B136A
:100350003308C8000A30C9003120A71B8B17A7013A
:100360008B1BA7178B137808C8000A30C9003120EF
:10037000A71B8B177708B700370EF700F030F7058B
:1003800077083604C3008316880183124308880067
:10039000A7018B1BA7178B133408C8000A30C900AC
:1003A0003120A71B8B177708B800A7018B1BA71755
:1003B0008B133408C8000A30C9003120A71B8B17E3
:1003C000A7018B1BA7178B137808C8000A30C90038
:1003D0003120A71B8B177708B900390EF700F030D2
:1003E000F70577083804C3000030C0008316870182
:1003F000831243088700A7018B1BA7178B133508AF
:10040000C8000A30C9003120A71B8B177708BA0033
:10041000A7018B1BA7178B133508C8000A30C9002A
:100420003120A71B8B17A7018B1BA7178B137808ED
:10043000C8000A30C9003120A71B8B177708BB0002
:100440003B0EF700F030F70577083A04C300831637
:10045000860183124308860008298A110A12702A2D
:10046000A801A901AA01AB01B201B301B401B50110
:10047000FF30C00083161F149F141F159F11831394
:100480001F3083058312C101B530900083160C1410
:10049000C03083128B04831609148312C10109181A
:1004A000C10A410B6C2A83160C148312C528280834
:1004B0003202031D6B2A29083302031D6B2A2A0806
:1004C0003402031D6B2A2B083502031D6B2A831689
:1004D000091183120915512A83160C10831207295A
:0404E0004B2A630040
:02400E00323F3F
:00000001FF
;PIC16F877
;CRC=EB67  CREATED="24-May-20 04:39"
